:020000040800F2
:10000000000400100900000800F01CF801F076FB65
:1000100000F002F81B4800474FF000604FF000511D
:1000200001F5803291423CBF50F8043B41F8043B5B
:10003000F8D343F60000C4F201004FF00301016061
:10004000704700001048016B41F00A010163416CE8
:1000500041F0100141640D48016841F42041016004
:10006000016A41F0EE410162094842F20C018181CE
:100070008B21018107484FF0AA4101604FF4704184
:1000800041617047E5200000003802400004024052
:1000900000100140000C02400000000000000000C1
:1000A0000000000000000000000000000000000050
:1000B0000000000000000000000000000000000040
:1000C0000000000079200000100000000000000087
:1000D00000000000000000000000000000FE000022
:1000E000A115000000000000DC2000002821000015
:1000F00028210000DC2000000000000000000000BB
:1001000000000000043F4B455900000041F8045D29
:100110000E4C268816F0200605D0656841F8045D6F
:1001200018BF6FF0000508BF0025704704010000EC
:1001300004454D4954000000044C268816F0800602
:10014000FBD0A58051F8045B70470000001001400F
:1001500030010000034E4F507047000041F8045D2D
:100160002EF0010E5EF8045B4EF0010E70470000A9
:1001700054010000074558454355544545F00104D6
:1001800051F8045B204700001468240004D102F1F8
:1001900004020EF1040E7047A4F1010414605EF82D
:1001A00001EC4EF0010E70472C0051F8045B04D1B5
:1001B0005EF801EC4EF0010E70470EF1040E704730
:1001C0005EF801EC4EF0010E704700007401000073
:1001D000044558495400000052F804FBD0010000C7
:1001E0000121000051F8044B2C6051F8045B70476A
:1001F000E0010000014000002D687047F40100009C
:100200000243210051F8044B2C7051F8045B7047F5
:1002100000020000024340002D78704714020000E5
:1002200002523E0041F8045D52F8045B7047000042
:10023000200200000252400041F8045D156870473A
:1002400034020000423E520042F8045D51F8045B63
:1002500070470000440200000353504041F8045D21
:100260000D467047580200000444524F50000000F1
:1002700051F8045B704700006802000003445550C9
:1002800041F8045D704700007C02000004535741B0
:10029000500000000C680D60254670478C0200007D
:1002A000044F56455200000041F8045D4D68704708
:1002B000A002000002303C004FF0000404EB2505D2
:1002C00070470000B402000003414E4451F8044B53
:1002D00005EA040570470000C8020000024F520002
:1002E00051F8044B45EA040570470000DC020000A9
:1002F00003584F5251F8044B85EA0405704700003B
:10030000F002000003554D2B0C6864194FF00005F6
:1003100045F100050C607047040300000652534885
:100320004946540051F8044B44FA05F57047000063
:100330001C030000064C53484946540051F8044B36
:1003400004FA05F57047000034030000012B00009B
:1003500051F8044B254470474C030000012D000068
:1003600051F8044BC5EB0405704700005C03000026
:10037000012A000051F8044B04FB05F5704700000A
:100380007003000003554D2A0C68A5FB04670E603E
:100390003D46704784030000024D2A000C6885FB2F
:1003A00004670E603D4670479803000002312B0041
:1003B00005F1010570470000AC03000002312D007B
:1003C000A5F1010570470000BC03000002322B00BC
:1003D00005F1020570470000CC03000002322D0039
:1003E000A5F1020570470000DC0300000543454C01
:1003F0004C2B000005F1040570470000EC030000E1
:100400000543454C4C2D0000A5F104057047000044
:100410000004000002424C0041F8045D4FF020054A
:1004200070470000140400000543454C4C53000085
:100430004FEA850570470000280400000543454C3D
:100440004C2F00004FEAA505704700003C04000057
:1004500002322A004FEA45057047000050040000B0
:1004600002322F004FEA650570470000600400006B
:10047000043F4455500000002C0018BF41F8045DB3
:10048000704700007004000003524F540C680D6068
:100490004D684C60704700008804000005324452EB
:1004A0004F50000051F8045B51F8045B70470000A6
:1004B0009C04000004324455500000000C6841F8D0
:1004C000045D41F8044D7047B404000002442B0061
:1004D00051F8044B51F8046B0F68E4190C6045EBBC
:1004E00006057047CC040000034E4F546FEA050523
:1004F00070470000E8040000064E4547415445009F
:10050000C5F1000570470000F804000003414253A4
:1005100015F0004F18BF6D42704700000C05000039
:10052000013D000051F8044BA5420CBF6FF00005DF
:10053000002570472005000002553C0051F8044B8F
:10054000AC4234BF6FF0000500257047380500004D
:10055000013C000051F8044BAC42B4BF6FF0000501
:100560000025704750050000013E000051F8044B83
:10057000AC42CCBF6FF00005002570476805000055
:10058000034D415851F8044BAC42C8BF2546704753
:1005900080050000034D494E51F8044BAC42B8BFF2
:1005A0002546704794050000022B210051F8044BAA
:1005B0002E6826442E6051F8045B7047A8050000A1
:1005C0000232210051F8044B51F8046B45F8044BFA
:1005D0002E6051F8045B7047C005000002324000F5
:1005E0006C6841F8044D2D6870470000DC05000080
:1005F00005434F554E54000015F8014B41F8045D7A
:1006000025467047F005000007444E4547415445D4
:100610000C68A8EB0808341B66EB05050C607047F6
:1006200041F8045DAEF1010552F804FB41F8045DA8
:100630005EF8015C52F804FB080600000527424FF3
:100640004F54000041F8045D03F1040570470000B9
:100650003C060000044241534500000041F8045D9F
:1006600003F108057047000041F8045D03F10C0533
:100670007047000054060000045350414E00000033
:1006800041F8045D03F11005704700007806000092
:10069000033E494E41F8045D03F114057047000024
:1006A00090060000042354494200000041F8045D14
:1006B00003F1180570470000A40600000527455601
:1006C000414C000041F8045D03F120057047000033
:1006D000BC06000003484C4441F8045D03F12405C6
:1006E00070470000D406000007434F4E544558544D
:1006F00041F8045D03F1280570470000E80600009A
:100700000243500041F8045D03F12C0570470000DE
:1007100000070000044C41535400000041F8045D00
:1007200003F13405704700001407000006574954D0
:1007300048494E0042F804EDFFF7B6FDFFF710FE02
:10074000FFF782FDFFF70CFEFFF76CFDFFF7F6FEEB
:1007500052F804FB2C07000006554D2F4D4F440066
:100760004FF0010751F8044B0E68B619644104D3E9
:10077000A4EB050406F1010604E0641B28BF761C07
:1007800000D22C44FF19F0D335460C6070470000AE
:1007900058070000054D2F4D4F44000042F804ED6E
:1007A000FFF76EFDFFF788FDFFF76AFDFFF74CFDD1
:1007B000FFF7FAFCC9070000FFF7A2FEFFF744FDB0
:1007C000FFF726FFFFF72EFDFFF73EFDFFF758FD71
:1007D000FFF772FDFFF7E8FCE5070000FFF72CFDCF
:1007E000FFF7B6FDFFF71EFDFFF7BAFFFFF71AFD93
:1007F000FFF7DAFC05080000FFF74CFDFFF780FE6D
:10080000FFF748FD52F804FB94070000042F4D4FFA
:100810004400000042F804EDFFF746FDFFF74CFDF1
:10082000FFF738FDFFF7BAFF52F804FB0C08000091
:10083000034D4F4442F804EDFFF7ECFFFFF718FDBE
:1008400052F804FB30080000012F000042F804EDCC
:10085000FFF7E0FFFFF71EFDFFF70AFD52F804FB6C
:1008600048080000052A2F4D4F44000042F804EDCF
:10087000FFF7EAFCFFF792FDFFF7D4FCFFF78EFFCE
:1008800052F804FB64080000022A2F0042F804ED2D
:10089000FFF7ECFFFFF7FEFCFFF7EAFC52F804FB62
:1008A0008808000007414C49474E454405F10305BF
:1008B0006FF0030405EA040570470000A408000077
:1008C000053E43484152000042F804EDFFF746FC64
:1008D0007F000000FFF7FAFCFFF7D2FCFFF79CFD5A
:1008E000FFF73CFC7F000000FFF724FFFFF7FEFD51
:1008F000FFF75AFC05090000FFF7BAFCFFF72EFCD2
:100900005F00000052F804FBC00800000544455099
:100910005448000041F8045D4FF60065A5EB010561
:100920004FEAA505A5F10105704700000C0900007C
:10093000045049434B00000042F804EDFFF738FD36
:10094000FFF776FDFFF78AFCFFF702FDFFF754FC87
:1009500052F804FB300900000448455245000000ED
:1009600042F804EDFFF7CEFEFFF746FC52F804FB19
:10097000580900000350414442F804EDFFF7F0FF2E
:1009800005F1500552F804FB740900000354494274
:1009900041F8045D4FF60065704700008C090000C7
:1009A0000840455845435554450000002C0051F877
:1009B000045B246844F0010418BF2047704700001E
:1009C000A009000005434D4F5645000051F8046B47
:1009D00051F8047B03E017F8014B06F8014B2D009A
:1009E00002D0A5F10105F6E751F8045B704700005D
:1009F000C4090000044D4F564500000025F00305D2
:100A000051F8046B51F8047B03E057F8044B46F8A7
:100A1000044B2D0002D0A5F10405F6E751F8045B64
:100A200070470000F40900000446494C4C000000E7
:100A300051F8046B51F8047B00E02D4607F8015B88
:100A4000360002D0A6F10106F6E751F8045B7047C4
:100A5000280A0000055041434B24000042F804EDF1
:100A6000FFF724FFFFF70CFCFFF7EEFBFFF71CFC82
:100A7000FFF76EFCFFF79CFCFFF770FBFCFFFFFF2E
:100A8000FFF724FCFFF76AFB00000000FFF702FC01
:100A9000FFF7A8FBFFF7D0FBFFF710FDFFF7B2FB56
:100AA000FFF786FCFFF7F6FBFFF790FFFFF7BAFBB7
:100AB00052F804FB540A0000054449474954000019
:100AC00042F804EDFFF74AFB09000000FFF7ECFBDA
:100AD000FFF740FD05F00705FFF73AFC05F130058B
:100AE00052F804FBB80A00000745585452414354D9
:100AF00042F804EDFFF732FB00000000FFF7CAFBED
:100B0000FFF72EFEFFF7C6FBFFF7DAFF52F804FBF4
:100B1000E80A0000023C230042F804EDFFF72CFF36
:100B2000FFF7DAFDFFF75EFB52F804FB140B000041
:100B300004484F4C4400000042F804EDFFF7CCFDA0
:100B4000FFF75AFBFFF73CFCFFF79AFBFFF7C4FDEA
:100B5000FFF748FBFFF756FB52F804FB300B000091
:100B60000123000042F804EDFFF778FDFFF744FB96
:100B7000FFF7BEFFFFF7E0FF52F804FB600B000039
:100B80000223530042F804EDFFF7ECFFFFF778FB78
:100B9000FFF70AFB9B0B0000F6E752F804FB00008E
:100BA000800B0000045349474E00000042F804ED5A
:100BB000FFF782FBFFF7F8FAC90B0000FFF7CEFA48
:100BC0002D000000FFF7B8FF52F804FBA40B000053
:100BD00002233E0042F804EDFFF74AFBFFF77CFDDD
:100BE000FFF70AFBFFF7C8FEFFF75EFBFFF7B8FB56
:100BF00052F804FB42F804EDFFF742FBFFF724FB39
:100C0000FFF786FCFFF788FFFFF7BCFFFFF70AFB43
:100C1000FFF7CCFFFFF7DEFF52F804FBD00B00001C
:100C20000348455842F804EDFFF798FA1000000019
:100C3000FFF714FDFFF7D6FA52F804FB200C000072
:100C400007444543494D414C42F804EDFFF786FA0D
:100C50000A000000FFF702FDFFF7C4FA52F804FB98
:100C6000400C00000644494749543F0042F804ED57
:100C7000FFF7EAFAFFF772FA30000000FFF770FBA7
:100C8000FFF76CFA09000000FFF70EFBFFF762FCAC
:100C9000FFF78AFAB90C0000FFF760FA07000000BE
:100CA000FFF75EFBFFF7ECFAFFF758FA0A000000C7
:100CB000FFF750FCFFF714FBFFF7E2FAFFF7B2FA79
:100CC000FFF73CFC52F804FB640C0000074E554D46
:100CD0004245523F42F804EDFFF7C0FCFFF78CFAA3
:100CE000FFF7B2FAFFF73AFA00000000FFF7DCFA6C
:100CF000FFF782FCFFF7D8FAFFF78EFAFFF72EFA1C
:100D00005F000000FFF70EFCFFF74EFA250D000014
:100D1000FFF788FFFFF7BEFAFFF74AFBFFF7BAFAC3
:100D2000FFF74EFBFFF7C0FAFFF776FAFFF716FA68
:100D30002D000000FFF7F6FBFFF786FAFFF7AAFA8F
:100D4000FFF77AFAFFF70CFBFFF7A4FAFFF774FA44
:100D5000FFF7FEFAFFF790FBFFF726FAE90D000018
:100D6000FFF72EFBFFF770FAFFF78AFAFFF76CFA2E
:100D7000FFF752FAFFF772FCFFF73EFAFFF776FF34
:100D8000FFF712FACD0D0000FFF784FAFFF766FCBB
:100D9000FFF732FAFFF7EEFAFFF7DAFAFFF742FA57
:100DA000FFF706FBFFF7F0F9690D0000FFF744FAC3
:100DB000FFF770FAFFF75CFAFFF7F6F9C50D0000D0
:100DC000FFF79EFBFFF766FA00F00CB8FFF72AFA70
:100DD000FFF728FAFFF766FBFFF764FBFFF7BEF9A2
:100DE00000000000FFF74CFAFFF71CFAFFF75AFB70
:100DF000FFF718FAFFF732FCFFF7F4F952F804FB9B
:100E0000CC0C0000034B455942F804EDFFF77EF986
:100E1000FFF7CAF90D0E000052F804FB040E0000A3
:100E2000055350414345000042F804EDFFF7F4FA42
:100E3000FFF782F952F804FB200E000006535041E0
:100E40004345530042F804EDFFF788F90000000025
:100E5000FFF798FBFFF7F8F900F002B8FFF7E4FF9F
:100E6000FFF792F95D0E000052F804FB3C0E000003
:100E7000045459504500000042F804EDFFF7E4F92E
:100E800000F006B8FFF7B8FBFFF71EFDFFF754F9B7
:100E9000FFF77AF9850E0000FFF7EAF952F804FB34
:100EA000700E00000243520042F804EDFFF756F9BD
:100EB0000D000000FFF740F9FFF750F90A000000AD
:100EC000FFF73AF952F804FB42F804EDFFF7AAF9EC
:100ED000FFF7A8F9FFF774FAFFF7D2F9FFF78CFBD9
:100EE000FFF736FAFFF7E2FCFFF762FAFFF7ACF91B
:100EF000FFF7D0F9FFF7A8F952F804FB42F804ED28
:100F0000FFF7E2FF52F804FB42F804EDFFF774FB31
:100F1000FFF7B2FF52F804FB42F804EDFFF7D4FFED
:100F2000FFF7F2FF52F804FBA40E0000022E52005D
:100F300042F804EDFFF788F9FFF75CFEFFF772F95E
:100F4000FFF7B2F9FFF70CFAFFF77CFFFFF794FF0A
:100F500052F804FB2C0F000003552E5242F804ED0A
:100F6000FFF772F9FFF7D8FDFFF70CFEFFF732FE2F
:100F7000FFF758F9FFF798F9FFF7F2F9FFF762FF6B
:100F8000FFF77AFF52F804FB580F000002552E00BD
:100F900042F804EDFFF7C0FDFFF7F4FDFFF71AFE7E
:100FA000FFF742FFFFF768FF52F804FB8C0F0000C9
:100FB000012E000042F804EDFFF750FBFFF71CF98B
:100FC000FFF7CCF80A000000FFF794F9FFF7ECF800
:100FD000DD0F0000FFF7DCFF52F804FBFFF70AFE0D
:100FE000FFF722FFFFF748FF52F804FBB00F0000A5
:100FF000013F000042F804EDFFF7FEF8FFF7DAFFCB
:1010000052F804FB42F804EDFFF72EFBFFF7EAF875
:10101000FFF74AF9FFF718F9FFF732F9FFF7C4F8BD
:1010200013110000FFF7CCF9FFF71EFBFFF7E4F800
:10103000FFF7F2F9FFF776FAFFF7B6F88D10000028
:10104000FFF702F9FFF7E8F9FFF72EF9FFF7E4F8E9
:10105000FFF786F9FFF730F9FFF748FAFFF7A4F832
:1010600089100000FFF7A4F9FFF78EF84510000083
:10107000FFF7D8F8FFF7FCF8FFF770F80000000062
:10108000FFF7FEF852F804FBFFF7CCF8FFF70CF976
:10109000FFF700F9FFF7D8F8FFF7E6FAFFF7ACF82B
:1010A000FFF702F9FFF7B8F8FFF75AF9FFF7DCFA94
:1010B000FFF7A2F8FFF7B0F9FFF734FAFFF774F87B
:1010C000C9100000FFF7F8F8FFF76EF8E71000000E
:1010D000FFF76EF9FFF758F899100000FFF7D0F806
:1010E000FFF7B2F809E0FFF79DF8FFF7C1F8FFF747
:1010F000C7F8FFF75DF9FFF7A7F8FFF7D5F8FFF797
:101100002FF9FFF78FF8FFF78DF8FFF729F952F85D
:1011100004FBFFF7C9F8FFF785F8FFF721F952F84C
:1011200004FB0000F00F0000055041525345000041
:1011300042F804EDFFF788F8FFF72AFCFFF7AAFA58
:10114000FFF75AF8FFF704F9FFF7B0FAFFF754F882
:10115000FFF7A0FAFFF750F8FFF702F9FFF762F880
:10116000FFF750FFFFF796FAFFF720FA52F804FB5B
:1011700028110000822E280042F804EDFEF7EEFF51
:1011800029000000FFF7D4FFFFF776FE52F804FBBA
:10119000741100008128000042F804EDFEF7DEFF24
:1011A00029000000FFF7C4FFFFF77CF952F804FBA9
:1011B00094110000815C000042F804EDFFF776FA1C
:1011C000FFF71AF8FFF766FAFFF70CF852F804FB7E
:1011D000B4110000044348415200000042F804EDFD
:1011E000FFF71AF9FFF7A4FFFFF742F8FFF714F82B
:1011F00052F804FBD411000004574F524400000081
:1012000042F804EDFFF794FFFFF7AAFBFFF7F2F8AF
:10121000FFF724FC52F804FBF811000005544F4B73
:10122000454E000042F804EDFFF7F6F8FFF7E8FF3F
:1012300052F804FB1C120000054E414D453E0000D3
:1012400042F804EDFFF7D8F9FEF788FF1F00000011
:10125000FFF73CF8FFF77CF8FFF728FB52F804FB98
:10126000381200000553414D453F000042F804ED9F
:10127000FEF7EAFF00F022B8FFF716F8FEF7DCFFF2
:10128000FFF7D6F8FFF764F8FEF7B6FFFFF70CF8A4
:10129000FEF7D2FFFFF7CCF8FFF75AF8FEF7ACFFE6
:1012A000FFF75EF8FFF7E8F8FEF77EFFBD120000DB
:1012B000FEF7B8FFFEF7DCFF52F804FBFEF764FF11
:1012C00079120000FEF74AFF0000000052F804FB0C
:1012D00042F804EDFEF7DEFFFEF7D2FFFEF79CFFBB
:1012E000FFF7B0F8FFF7C0F9FEF77CFFFEF7C8FF85
:1012F000FEF782FFFEF7A8FFFFF77CF8FEF7CAFFB4
:10130000FEF7BEFFFEF750FF51130000FEF7B8FFD7
:10131000FEF772FFFEF722FF1FFFFFFFFEF7D6FF6B
:10132000FEF78AFFFEF7E6FFFEF73EFF3D130000E3
:10133000FFF76AF8FEF760FFFFF7E2BFFFF75AF822
:10134000FFF792F9FEF758FFFFF790FF00F00CB897
:10135000FEF768FFFEF78CFFFEF79CFFFFF754F8DF
:10136000FEF798FF52F804FBFEF71EFF8113000002
:10137000FFF74AF8FFF748F8FEF73EFFFFF7C0BF58
:10138000FEF750FFFEF774FFFEF784FFFEF770FFD5
:10139000FFF73AF8FEF774FFFFF752FFFEF77AFF08
:1013A00052F804FB64120000054E414D453F000019
:1013B00042F804EDFFF79CF9FEF71EFFFFF788FFE8
:1013C00052F804FB42F804EDFEF73EFFFEF76CFF17
:1013D000FEF728FFFEF75EFFFEF766FFFEF78AFFC7
:1013E000FEF7E2FE0D140000FEF7B8FE0800000054
:1013F000FEF7A2FEFEF7E4FFFFF70EF8FEF79CFEF5
:10140000FEF7ACFE08000000FEF796FE52F804FB63
:1014100042F804EDFEF734FFFEF78EFEFEF744FFC0
:10142000FEF7F0FEFEF7C4FF52F804FB42F804EDAD
:10143000FEF726FFFEF792FE0D000000FEF75AFFB2
:10144000FEF7B2FE75140000FEF788FE08000000EB
:10145000FEF750FFFEF7A8FE6D140000FEF7DCFF5C
:10146000FFF7D6FF52F804FB00000000FFF7AAFFC9
:1014700052F804FBFEF7FCFEFEF70CFFFEF7F8FE49
:10148000FEF7FEFE52F804FBA8130000064143439A
:101490004550540042F804EDFEF706FFFEF758FFF2
:1014A000FEF702FFFFF70AF8FEF724FFFEF77CFEC7
:1014B000E1140000FFF7A8FCFEF7E2FEFEF7ACFF28
:1014C000FEF74CFE7F000000FFF734F9FEF76CFEDC
:1014D000DB140000FFF79CFF01E0FFF7A7FFE1E747
:1014E000FEF7C6FEFEF7E0FEFEF73AFF52F804FBF9
:1014F0008C140000055155455259000042F804ED86
:10150000FFF746FAFEF72AFE50000000FFF7C2FF81
:10151000FFF7CCF8FEF766FEFEF7AAFEFEF71EFE0A
:1015200000000000FFF7B6F8FEF75CFE52F804FB7F
:10153000F41400000541424F5254000042F804EDFB
:10154000FFF772FCFFF758F8FFF796FCFEF706FE70
:101550003F000000FEF7F0FDFFF7A6FC00F0B2F838
:1015600000F0BEB842F804EDFEF71EFE851500003F
:10157000FFF7AAFCFFF740F8FFF77EFCFFF794FCAB
:1015800000F0AEB8FFF7A0FCFEF772FE52F804FBC5
:10159000341500000A24494E544552505245540017
:1015A00042F804EDFFF704FFFEF766FFFEF7FCFDCF
:1015B000E1150000FEF720FEFEF7D0FD4000000020
:1015C000FEF784FEFFF7CEFF0D20636F6D70696C30
:1015D00065206F6E6C790000FEF7D0FD52F804FBB9
:1015E000FFF778FBFEF7E0FDF115000052F804FB71
:1015F000FFF7A4BF94150000815B000042F804EDE2
:10160000FEF7ACFDA1150000FFF75CF8FEF7EAFD60
:1016100052F804FBF8150000032E4F4B42F804ED7E
:10162000FEF79CFDA1150000FFF74CF8FEF7E4FD66
:10163000FEF778FFFEF7B8FD45160000FFF76CFCDB
:1016400003206F6BFFF730FC52F804FB1816000004
:10165000063F535441434B0042F804EDFFF75AF95B
:10166000FEF72AFEFFF77EFF0A20756E646572663C
:101670006C6F770052F804FB501600000445564189
:101680004C00000042F804EDFFF7CCFDFEF7F8FD3A
:10169000FEF7C2FDFEF788FDAD160000FFF712F859
:1016A000FFF784F9FFF7D8FFFFF7EEBFFEF7E0FD85
:1016B000FFF7B4FF52F804FB7C16000006505245B9
:1016C0005345540042F804ED4FF6006140F200002B
:1016D00052F804FBBC1600000451554954000000A8
:1016E00042F804ED4FF60072FFF788FFFFF706FFA0
:1016F000FFF7C8FFFEF764FDED1600002248234CFB
:101700004460234C44604FF40074046170471E48E9
:10171000C46814F48054FBD170470000D816000050
:101720000C45524153455F534543544F520000000E
:1017300042F804EDFFF7EBFF046924F078044FEA68
:10174000C50544EA050444F4803444F4007444F0CC
:101750000204046151F8045B52F804FB20170000F6
:101760000249210042F804EDFFF7D1FF046944F07B
:1017700001040461FEF736FDFFF7C9FF046924F098
:101780000104046152F804FB003C02402301674558
:10179000AB89EFCD60170000075455524E4B4559A9
:1017A00042F804EDFEF7DAFC00FF0000FEF7D6FC7D
:1017B000C0000000FEF7D2FC40000000FFF71EF959
:1017C000FEF7CCFC00000000FEF7C8FC000000089B
:1017D000FEF798FFFEF710FDFEF734FEFEF734FD2E
:1017E000FEF762FDFEF708FDFEF75EFDFFF7BAFFAC
:1017F000FEF750FDFEF7FEFDFEF74CFDFEF7FAFD8D
:10180000FEF7C2FCE1170000FEF74CFE52F804FBA5
:10181000981700000127000042F804EDFFF702FDD1
:10182000FFF7C6FDFEF7C0FC3118000052F804FBBC
:10183000FFF784BE1418000005414C4C4F540000C3
:1018400042F804EDFEF75EFFFEF7B0FE52F804FB2F
:1018500038180000012C000042F804EDFFF780F872
:10186000FEF70EFDFEF7C6FDFEF74CFFFEF7BAFCD5
:10187000FEF7B8FC52F804FB54180000895B434F94
:101880004D50494C455D000042F804EDFFF7C4FFA0
:10189000FFF7E2FF52F804FB7C18000047434F4D6E
:1018A00050494C4542F804EDFEF7BCFC25F001051B
:1018B000FEF7E6FCFEF7A0FC00F0DAF9FEF79AFD71
:1018C00045F00105FEF7C0FC52F804FB9C1800002F
:1018D000874C49544552414C42F804EDFFF7E2FF72
:1018E0005D010000FFF7B8FF52F804FB42F804ED79
:1018F000FEF734FCFCFFFFFFFEF704FFFEF756FE89
:10190000FEF72CFC22000000FFF77AFCFEF774FEC5
:10191000FEF71EFDFEF7CAFFFEF7F4FEFEF762FCBF
:1019200052F804FBD018000083464F5242F804EDF1
:10193000FFF7B8FF49020000FFF712F852F804FB66
:101940002819000085424547494E000042F804ED41
:10195000FFF706F852F804FB44190000844E45587E
:101960005400000042F804EDFFF79CFF89010000DD
:10197000FFF772FF52F804FB5C19000085554E54C6
:10198000494C000042F804EDFFF78CFFA90100006C
:10199000FFF762FF52F804FB7C19000085414741C4
:1019A000494E000042F804EDFFF77CFFC101000042
:1019B000FFF752FF52F804FB9C19000082494600D1
:1019C00042F804EDFFF76EFFA9010000FEF7C8FF23
:1019D000FEF7C4FB04000000FEF794FEFEF7E6FDF0
:1019E00052F804FBBC190000854148454144000001
:1019F00042F804EDFFF756FFC1010000FEF7B0FF0B
:101A0000FEF7ACFB04000000FEF77CFEFEF7CEFD07
:101A100052F804FBE8190000865245504541540035
:101A200042F804EDFFF7BEFFFEF79AFFFEF732FC27
:101A3000FEF7D8FB52F804FB181A000084544845FE
:101A40004E00000042F804EDFEF78AFFFEF722FC8C
:101A5000FEF7C8FB52F804FB3C1A000083414654D1
:101A600042F804EDFEF704FCFFF7C2FFFFF76EFF3C
:101A7000FEF710FC52F804FB5C1A000084454C533E
:101A80004500000042F804EDFFF7B2FFFEF702FC4C
:101A9000FFF7D8FF52F804FB7C1A0000855748492D
:101AA0004C45000042F804EDFFF78AFFFEF7F2FB19
:101AB00052F804FB9C1A00008641424F5254220007
:101AC00042F804EDFFF7EEFE65150000FFF70EFF8C
:101AD00052F804FBB81A00008224220042F804EDF8
:101AE000FFF7E0FEFD0E0000FFF700FF52F804FBD9
:101AF000D81A0000822E220042F804EDFFF7D2FE31
:101B0000190F0000FFF7F2FE52F804FBF41A000070
:101B1000073F554E4951554542F804EDFEF7B0FBDD
:101B2000FFF746FCFEF740FB451B0000FFF7F4F90A
:101B30000720726544656620FEF7B6FBFEF75CFD84
:101B4000FFF79AF9FEF794FB52F804FB42F804ED14
:101B5000FEF796FBFEF760FBFEF726FB951B0000E9
:101B6000FFF7DAFFFEF7DAFDFEF746FBFFF774FE3C
:101B7000FEF786FBFEF7D2FDFEF734FBFEF73CFDD9
:101B8000FEF7E6FBFEF792FEFEF7BCFDFEF72AFB32
:101B900052F804FBFFF7B2F907206E616D653F2034
:101BA000FFF7CCBC101B00000824434F4D50494C9C
:101BB0004500000042F804EDFFF7FAFBFEF75CFC7D
:101BC000FEF7F2FAF11B0000FEF716FBFEF7C6FA6D
:101BD00080000000FEF77AFBFEF7E6FAE91B000042
:101BE000FEF7CCFA52F804FB00F042F852F804FB7E
:101BF000FFF770F8FEF7D8FA051C0000FFF76CFE3F
:101C000052F804FBFFF79ABCA81B0000054F56458D
:101C10005254000042F804EDFEF780FDFEF7ECFAA6
:101C2000FEF766FDFEF7DEFA52F804FB0C1C00001E
:101C3000C13B000042F804EDFEF790FA52F804FBB5
:101C4000FFF70AFEFFF7DAFCFFF7E4FF52F804FBA8
:101C5000301C0000015D000042F804EDFEF77EFA42
:101C6000B51B0000FEF72EFDFEF7BCFA52F804FB90
:101C700042F804ED25F00105FEF772FEFEF770FB59
:101C8000A5F1040540F2FF702C464FEA153505EA30
:101C900000054FEAC43445EA040545F0784545F4AB
:101CA0007045FFF7D9FD52F804FB0000541C0000FA
:101CB000013A000042F804EDFFF7B4FAFFF746FFDF
:101CC000FEF74CFA42F804EDFFF7C6FDFFF7C4FF3C
:101CD00052F804FBB01C000009494D4D45444941F0
:101CE0005445000042F804EDFEF738FA8000000089
:101CF000FEF714FDFEF780FAFEF77EFAFEF7F0FA23
:101D0000FEF70CFDFEF778FAFEF76CFA52F804FBCA
:101D1000D81C000008434F4E5354414E540000005D
:101D200042F804EDFFF77EFAFFF710FFFFF772FFAE
:101D3000FEF714FA42F804EDFFF78EFDFEF70EFAF7
:101D40002D060000FFF794FFFFF786FD52F804FB15
:101D5000141D0000064352454154450042F804ED6D
:101D6000FFF760FAFFF7F2FEFFF754FFFEF7F6F910
:101D700042F804EDFFF770FDFEF7F0F921060000D0
:101D8000FFF776FF52F804FB541D0000085641523D
:101D90004941424C4500000042F804EDFFF7DEFFE8
:101DA000FEF7DCF900000000FFF756FD52F804FBD7
:101DB00042F804EDFEF778FAFEF7D0F904000000CF
:101DC000FFF7CCF8FFF730F8FEF73EFA00F00CB85A
:101DD000FEF756FAFEF720FAFEF7C0F903000000FE
:101DE000FFF7BCF8FEF7E4FAFEF7CEF9D11D0000CC
:101DF00052F804FB8C1D00000444554D50000000B7
:101E000042F804EDFEF72AFCFEF7F6F9FEF71CFA9D
:101E1000FEF708FFFEF7A2F910000000FEF716FD1E
:101E2000FEF712FA00F014B8FFF73EF8FEF796F945
:101E300010000000FEF742FBFFF7BAFFFEF726FB9B
:101E4000FEF724FBFEF7F0FFFEF7EEFFFFF714F8B6
:101E5000FEF79AF9291E0000FEF70AFAFEF7E2F9EA
:101E6000FEF7FCFBFEF7BEF952F804FBF81D00007C
:101E7000022E530042F804EDFEF7D6FFFEF74AFDAE
:101E8000FEF7E2F900F006B8FEF7D6F9FEF754FDCA
:101E9000FFF790F8FEF778F9891E0000FEF7C4FFFF
:101EA00052F804FB701E0000053E4E414D450000F7
:101EB00042F804EDFEF7C8F9FEF71AFCFEF79CF9AC
:101EC000FEF7DEF9FEF770F9F11E0000FEF7D8F913
:101ED000FFF7B6F9FEF7B0F9FEF70CFAFEF764F972
:101EE000F11E0000FEF790FAFEF786F9FFF7E8BF53
:101EF000FEF798F9FEF7BCF952F804FBA81E0000A3
:101F0000032E494442F804EDFEF7B6FAFEF74CF909
:101F10002D1F0000FEF770FBFEF720F91F000000E8
:101F2000FEF7D4F9FEF7A8FF52F804FBFEF7F4FF22
:101F300009207B6E6F4E616D657D000052F804FBD9
:101F4000001F00000353454542F804EDFFF764FC11
:101F5000FEF7AAFFFEF702F914000000FEF774F97D
:101F6000FEF748FAFEF78CF900F010F8FEF70CF9CE
:101F7000611F0000FEF77CF952F804FB441F0000CB
:101F8000094445434F4D50494C45000042F804ED8B
:101F9000FEF776F9FEF730F9FEF772F9FEF7DEF894
:101FA00000F800F8FEF792F9FEF7D8F800F000F814
:101FB000FEF7B8FAFEF7F8F81120000040F6FE70C0
:101FC0002C464FEA45554FEA65254FEAD43404EADA
:101FD000000445EA040500BFFEF766F9FEF7B8F90C
:101FE000FEF708FAFFF764FFFEF746FAFEF7DCF8A3
:101FF00005200000FEF718FFFFF784FFFEF738F911
:1020000052F804FBFEF7F8F8FEF7C2FF52F804FBA3
:10201000FEF7BEFFFEF72CF952F804FB801F00000C
:1020200005574F524453000042F804EDFEF73CFFC1
:10203000FEF75EFBFEF7E0F8FEF71EFAFEF7B4F8D7
:102040005D200000FEF71CF9FEF7EEFEFFF75AFFD9
:10205000FEF7DAF9FEF7D0F8FFF7EEBF52F804FB0F
:1020600042F804EDFEF77AF82007000052F804FB6E
:10207000202000000248490042F804EDFEF714FF5A
:10208000FEF74AFF0D73746D333265466F727468E4
:1020900020760000FEF7E2FAFEF7AEF8FEF7C2FD8A
:1020A000FFF7DEFFFEF738FDFEF75CFDFEF75AFD99
:1020B000FEF754F82E000000FEF73EFDFEF762FD2D
:1020C000FEF788FDFEF7D8FEFEF7C8FAFEF78AF89D
:1020D000FEF7EAFE52F804FB7420000004434F4C64
:1020E000440000004FF600731A46A2F580714FF0CD
:1020F000000500BF42F804EDFEF730F8C000000014
:10210000FEF72CF800FF0000FEF728F84000000062
:10211000FEF774FCFFF7D6FAFEF794FAFEF746FCDA
:0C212000FFF778FDFFF7DCBAFFFFFFFFC0
:0400000508000009E6
:00000001FF
